:020000040800F2
:1000000000000220B9020008BF020008C302000875
:10001000DB020008DF020008F70200080000000011
:100020000000000000000000000000000F030008B6
:100030001303000800000000170300083111000836
:1000400029030008290300082903000829030008E0
:1000500029030008290300082903000829030008D0
:1000600029030008290300082903000829030008C0
:1000700029030008290300082903000829030008B0
:1000800029030008290300082903000829030008A0
:100090002903000829030008290300082903000890
:1000A0002903000829030008290300082903000880
:1000B0002903000829030008290300082903000870
:1000C0002903000829030008290300082903000860
:1000D0002903000829030008290300082903000850
:1000E0002903000829030008290300082903000840
:1000F0002903000829030008290300082903000830
:10010000290300082903000829030008290300081F
:10011000290300082903000829030008290300080F
:1001200029030008290300082903000829030008FF
:1001300029030008290300082903000829030008EF
:1001400029030008290300082903000829030008DF
:1001500029030008290300082903000829030008CF
:1001600029030008290300082903000829030008BF
:1001700029030008290300082903000800000000E3
:10018000290300082903000800B583B000F002FF2E
:10019000384B394A1360394A1360394900E0214627
:1001A000384B99420BD20A684B6801F10C048868FD
:1001B0009842F4D952F8041B43F8041BF8E72E4B7D
:1001C0001A68314B9A4200D0FEE72C4B1A682F4B2D
:1001D0009A42F9D1274B2E4A13602E4A13602E4AB9
:1001E00005E0002043F8040B9A42FAD80A462B4B4C
:1001F0009A4204D2114651F8083B5268F4E7244B66
:100200001B6813B9234B1B6803B1FEE700F0E4FF42
:10021000694601A800F0B2FE214C224BE41AA4105A
:10022000002504E01F4B53F8253098470135AC42B8
:10023000F8DC1D4C1D4BE41AA410002504E01B4BF8
:1002400053F8253098470135AC42F8DC0099019805
:1002500000F0CAFF0546164C164BE41AA41004E041
:10026000013C144B53F824309847002CF8DC284606
:1002700000F07EFEBABADECA0000002010000020A6
:100280002C03000844030008785634123254769840
:100290001400002024000020440300085403000838
:1002A00054030008540300085403000854030008D2
:1002B000540300085403000808B5FFF765FF00BEAB
:1002C000FEE71EF0040F0CBFEFF30880EFF3098088
:1002D0007146124A104700BEFEE700BEFEE71EF060
:1002E000040F0CBFEFF30880EFF3098071460C4A4E
:1002F000104700BEFEE71EF0040F0CBFEFF30880AE
:10030000EFF309807146074A104700BEFEE700BEC2
:10031000FEE700BEFEE700BEFEE77047D70200081A
:0C032000F30200080B03000800BEFEE71B
:10032C00E41200080000002014000020E412000871
:10033C000000001000000010140000202800002015
:08034C00000000100000001089
:1003540010B50446074B1868074BA3FB003080090F
:1003640000F098F8002221464FF0FF3000F04CF8DE
:10037400002010BD0C000020D34D621008B50B4BBB
:100384001A6842F400721A601A6842F480621A60B1
:100394001A6842F480721A60032000F017F80F20E4
:1003A400FFF7D6FF00F040FF002008BD003C0240EC
:1003B400024A136801331360704700BF1C00002019
:1003C400014B1868704700BF1C00002010B504469C
:1003D400C31E042B0FD80A4AD36823F4E0631B041A
:1003E4001B0C240204F4E064234343F0BF6343F48E
:1003F4000033D36010BDA421024800F0C5FDEAE734
:1004040000ED00E03012000870B505460C461646B3
:100414000F2A0FD80F2C12D81B4BDB68C3F302230F
:10042400C3F10702042A28BF0422191D06290BD987
:10043400033B0AE0BC21154800F0A6FDEAE7BD2114
:10044400124800F0A1FDE7E700234FF0FF3101FA65
:1004540002F224EA02049C4001FA03F326EA0306AA
:100464003443002D08DB2401E4B205F1604505F5B1
:10047400614585F8004370BD05F00F052401E4B221
:10048400034B5C55F7E700BF00ED00E030120008B5
:1004940014ED00E00138B0F1807F0AD2064B5860B9
:1004A400064AF02182F823100020986007221A607F
:1004B40070470120704700BF10E000E000ED00E04D
:1004C40010B50446042800D038B9042C0BD0094ACE
:1004D400136823F00403136010BD40F2B3110648FF
:1004E40000F052FDF1E7034A136843F0040313607C
:1004F400F2E700BF10E000E0301200082DE9F047F9
:1005040082B080460E46B84B984223D003F58063F0
:1005140098421FD003F5806398421BD003F5806393
:10052400984217D003F58063984213D003F5806393
:1005340098420FD003F5806398420BD003F5806393
:10054400984207D003F58063984203D0C521A74899
:1005540000F01AFD338833B37368012B1ED9112BB5
:100564001CD0022B1AD0122B18D0A14A934215D0BA
:1005740002F58012934211D002F5801293420DD0FD
:10058400A2F5F812934209D002F58012934205D0E5
:1005940002F58012934201D0032B09D1B368022BD8
:1005A4000BD800244FE0C621904800F0EDFCD3E7BF
:1005B400C7218E4800F0E8FCF0E7C8218B4800F022
:1005C400E3FCEEE7D921894800F0DEFC67E0EC218A
:1005D400864800F0D9FC92E0082300E000238B4019
:1005E40003430232834941F82230834B1A68FB43A8
:1005F40003EA0201706810F4803F01D047EA020167
:100604007D4A1160526803EA0201706810F4003FE9
:1006140001D047EA0201784A5160926803EA020174
:10062400706810F4801F01D047EA0201724A916099
:10063400D2681340716811F4001F01D047EA020325
:100644006D4AD36001340F2C00F2CB800125A54004
:1006540037682F40BD42F5D17368022B01D0122BAD
:100664002DD13369DBB1092B19D0012B17D0022B03
:1006740015D0032B13D0042B11D0052B0FD0062B30
:100684000DD0072B0BD0082B09D00A2B07D00B2B2E
:1006940005D00C2B03D00D2B01D00F2B92D1E208E7
:1006A400083258F8220004F0070399000F238B4006
:1006B40020EA030033698B40034348F82230D8F81A
:1006C40000204FEA440A4FF0030909FA0AF96FEAD5
:1006D400090909EA0202736803F0030303FA0AF33F
:1006E4001343C8F8003073685A1E012A03D9112B2A
:1006F40001D0122B18D1F368032B3FF668AFD8F85A
:10070400082009EA0202F36803FA0AF31343C8F85B
:100714000830D8F8042022EA05027368C3F30015F0
:10072400A5401543C8F80450D8F80C3009EA030969
:10073400B36803FA0AF343EA0903C8F80C30736890
:1007440013F0805F3FF47EAF002301932B4B5A6C70
:1007540042F480425A645B6C03F480430193019B2E
:10076400A208911C234B53F8210004F003039900C1
:100774000F238B4020EA03001B4B98453FF42EAF18
:1007840003F5806398451ED003F5806398451CD01B
:1007940003F5806398451AD003F58063984518D013
:1007A40003F58063984516D003F58063984514D00B
:1007B40003F58063984512D003F5806398453FF4B0
:1007C4000BAF09230BE7012309E7022307E7032300
:1007D40005E7042303E7052301E70623FFE60723D0
:1007E400FDE602B0BDE8F087000002406412000894
:1007F4000000111000380140003C01400038024064
:1008040070B5064615460C4621B1012D08D86DB1C8
:10081400B46170BD40F2B111064800F0B5FBF4E7D5
:100824004FF4D971034800F0AFFBF0E72404B4613E
:10083400EFE700BF6412000830B583B004460368D4
:100844000F2B29D8236813F0010F3DD06368012BC7
:1008540001D9052B25D1A24B9B6803F00C03042B73
:1008640029D09F4B9B6803F00C03082B1ED02279E0
:100874009C4B1A706368002B50D0FFF7A1FD05460E
:10088400974B1B6813F4003F1ED1FFF799FD401BE3
:100894006428F5D90320E3E1F521934800F074FBC3
:1008A400D0E7FA21904800F06FFBD4E78C4B5B68EB
:1008B40013F4800FDBD08A4B1B6813F4003F03D082
:1008C4006368002B00F0C781236813F0020F5CD02B
:1008D400E368012B31D823691F2B34D8804B9B68E4
:1008E40013F00C0F3AD07E4B9B6803F00C03082BDB
:1008F4002FD0E368002B73D07C4B01221A60FFF7E2
:100904005FFD0546764B1B6813F0020F59D1FFF7C4
:1009140057FD401B0228F5D90320A1E1FFF750FD44
:1009240005466F4B1B6813F4003FCDD0FFF748FD1D
:10093400401B6428F5D9032092E14FF496716A486C
:1009440000F022FBC7E740F22D11674800F01CFBC2
:10095400C4E7634B5B6813F4800FCAD1604B1B6818
:1009640013F0020F03D0E368012B40F076815C485A
:10097400036823F0F8032169F82292FAA2F2B2FA8A
:1009840082F201FA02F213430360236813F0080FA2
:1009940050D06369012B35D86369002B38D0544B90
:1009A40001221A60FFF70CFD05464D4B5B6F13F0F7
:1009B400020F3FD1FFF704FD401B0228F5D90320A5
:1009C4004EE14748036823F0F8032169F82292FABC
:1009D400A2F2B2FA82F201FA02F213430360D4E7FC
:1009E400424B00221A60FFF7EBFC05463C4B1B68A8
:1009F40013F0020FC9D0FFF7E3FC401B0228F5D91E
:100A040003202DE140F26D11374800F0BDFAC3E731
:100A1400374B00221A60FFF7D3FC0546304B5B6F5F
:100A240013F0020F06D0FFF7CBFC401B0228F5D9C8
:100A3400032015E1236813F0040F5FD0A368012B92
:100A440001D9052B1FD100230193254B1A6C42F0C9
:100A540080521A641B6C03F080530193019B254A56
:100A6400136843F480731360FFF7AAFC0546214B17
:100A74001B6813F4807F0CD1FFF7A2FC401B0228F3
:100A8400F5D90320ECE040F29711174800F07CFA06
:100A9400D9E7227A184B1A70A36883B1FFF790FC48
:100AA40005460F4B1B6F13F0020F27D1FFF788FC8D
:100AB400401B41F288339842F3D90320D0E0FFF77A
:100AC4007FFC0546064B1B6F13F0020F16D0FFF791
:100AD40077FC401B41F288339842F3D90320BFE0EE
:100AE4000038024002380240A412000800004742C5
:100AF400800E47420070004070380240A369022B08
:100B040039D8A369002B00F0AA80574A926802F0F2
:100B14000C02082A00F0A680022B40F08880E369CA
:100B240013B1B3F5800F2CD1236A3F2B2FD8636AFE
:100B3400323BB3F5BF7F30D8A36A022B05D0042B18
:100B440003D0062B01D0082B2DD1E36A043B0B2BD9
:100B54002FD8464B00221A60FFF732FC0546424B61
:100B64001B6813F0007F2AD0FFF72AFC401B0228E1
:100B7400F5D9032074E04FF4E6713D4800F004FA1F
:100B8400BFE740F2D5113A4800F0FEF9CCE74FF444
:100B9400EB71374800F0F8F9C9E740F2D71134484F
:100BA40000F0F2F9C8E74FF4EC71314800F0ECF9C9
:100BB400CBE740F2D9112E4800F0E6F9C9E7E36922
:100BC400226A1343616A47F6C07292FAA2F2B2FA39
:100BD40082F201FA02F21343A26A5208013A4FF474
:100BE400403191FAA1F1B1FA81F18A401343E16AEB
:100BF4004FF0706292FAA2F2B2FA82F201FA02F2B1
:100C04001343194A5360194B01221A60FFF7D8FBAA
:100C14000446154B1B6813F0007F06D1FFF7D0FB89
:100C2400001B0228F5D903201AE0002018E00F4B1E
:100C340000221A60FFF7C4FB04460B4B1B6813F039
:100C4400007F06D0FFF7BCFB001B0228F5D9032068
:100C540006E0002004E0012002E0012000E0002082
:100C640003B030BD0120FBE700380240600047427A
:100C7400A4120008214B9B6803F00C03042B38D00A
:100C8400082B38D11D4B586800F03F005B6813F403
:100C9400800F1ED01A4AB2FBF0F2184B586847F680
:100CA400C073184093FAA3F3B3FA83F3D84000FB5C
:100CB40002F0124B5B6803F440334FF4403292FA73
:100CC400A2F2B2FA82F2D34001335B00B0FBF3F03C
:100CD40070470C4AB2FBF0F2084B586847F6C073F1
:100CE400184093FAA3F3B3FA83F3D84000FB02F05D
:100CF400DFE7034870470348704700BF00380240ED
:100D040000127A000024F40070B504460D4603680E
:100D1400013B0E2B5ED8072D62D88C4B1B6803F069
:100D24000F03AB4208D2EBB2884A1370136803F086
:100D34000F03AB4240F00481236813F0020F18D074
:100D4400A3687BB1802B0DD0902B0BD0A02B09D0A6
:100D5400B02B07D0C02B05D0D02B03D0E02B01D073
:100D6400F02B43D17A4A936823F0F003A1680B4334
:100D74009360236813F0010F7FD06368032B3BD883
:100D84006368012B3ED09A1E012A42D9704A126828
:100D940012F0020F00F0D6806D498A6822F0030237
:100DA40013438B60FFF70CFB06466368012B37D0B7
:100DB400022B44D0032B51D0654B9B6813F00C0FCE
:100DC4005BD0FFF7FDFA801B41F288339842F3D9D8
:100DD4000320A8E040F237215E4800F0D5F89AE7F6
:100DE4004FF40E715B4800F0CFF896E740F24F21C4
:100DF400584800F0C9F8B5E740F25621554800F0CC
:100E0400C3F8BDE7524A126812F4003FC4D101206E
:100E140089E04F4A126812F0007FBDD1012082E0C0
:100E24004B4B9B6803F00C03042B26D0FFF7C8FA46
:100E3400801B41F288339842F2D9032073E0444B7B
:100E44009B6803F00C03082B17D0FFF7B9FA801B3B
:100E540041F288339842F2D9032064E03C4B9B680A
:100E640003F00C030C2B08D0FFF7AAFA801B41F205
:100E740088339842F2D9032055E0344B1B6803F0C1
:100E84000F03AB4207D9EAB2304B1A701B6803F068
:100E94000F03AB4258D1236813F0040F14D0E36856
:100EA4005BB1B3F5805F08D0B3F5A05F05D0B3F5AF
:100EB400C05F02D0B3F5E05F36D1254A936823F4CE
:100EC400E053E1680B439360236813F0080F15D0D7
:100ED40023695BB1B3F5805F08D0B3F5A05F05D09B
:100EE400B3F5C05F02D0B3F5E05F23D1184A93682D
:100EF40023F46043216943EAC1039360FFF7BAFE18
:100F0400134B9B6803F0F003F02292FAA2F2B2FAB8
:100F140082F2D340104AD35CD840104B18600F20A3
:100F2400FFF716FA002070BD4FF42D71094800F048
:100F34002BF8C2E740F2BB21064800F025F8D5E7BC
:100F44000120F0E70120EEE70120ECE7003C02403D
:100F540000380240A4120008941200080C0000207B
:100F6400014B1868704700BF0C000020FEE708B56D
:100F74000120FFF7FBFF000001230360014B0B601E
:100F8400704700BF0400002008B5FFF7F0FF000021
:100F940008B500F009F8024A024B9A6008BD00BF88
:100FA4000000000800ED00E00C4B1A6842F001025A
:100FB4001A60002199601A6822F0847222F4803247
:100FC4001A60074A5A601A6822F480221A60D960AB
:100FD400044B4FF000629A60704700BF0038024033
:100FE4001030002400ED00E0224B9B6803F00C035A
:100FF400042B14D0082B16D01BB11F4B1F4A1A60A8
:1010040002E01D4B1D4A1A601A4B9B68C3F303137D
:101014001B4AD15C184A1368CB4013607047164BC7
:10102400184A1A60F0E7134B5A685B6803F03F03F1
:1010340012F4800F13D0134AB2FBF3F20D4B5B682A
:10104400C3F3881303FB02F30A4A5268C2F3014252
:1010540001325200B3FBF2F3074A1360D4E7074AA4
:10106400B2FBF3F2034B5B68C3F3881303FB02F395
:10107400EAE700BF003802400C0000200024F4001E
:10108400D412000800127A0030B587B00C4A136BF2
:1010940043F0080313634FF4805501950123029331
:1010A400022204920393074C01A92046FFF726FA73
:1010B400002229462046FFF7A3FB07B030BD00BF3E
:1010C40000380240000C02400A4B1B680A4AA2FB8B
:1010D40003239B09013BB3F1807F09D2074A536084
:1010E400074BF02183F82310002393600723136038
:1010F400704700BF0C000020D34D621010E000E0E8
:1011040000ED00E0034B1860024B1B68002BFBD181
:10111400704700BF20000020034B1B681BB1024A2C
:101124001368013B136070472000002008B5FFF7E7
:101134003FF9FFF7F1FF08BD30B595B000240194E5
:10114400214B1A6C42F080521A641B6C03F08053DA
:101154000193019B02941D4B1A6842F480421A6069
:101164001B6803F480430293029B012308930993B1
:101174004FF480030F93082310934FF4A873119333
:1011840002251295072313930E9508A8FFF754FB25
:101194000F230393049505944FF4A05306934FF43F
:1011A40080530793052103A8FFF7AEFDFFF7D8FE90
:1011B400074BA3FB00308009FFF76CF90420FFF70D
:1011C4007FF915B030BD00BF003802400070004008
:1011D400D34D621008B5FFF7D1F8FFF7ADFFFFF765
:1011E40003FF08BD10B5FFF76FFFFFF74DFF0024A5
:1011F4000DE04FF47A70FFF785FF00224FF4805121
:101204000848FFF7FDFAFA20FFF77CFF01340122BA
:101214004FF480510348FFF7F3FA002CE9D040F271
:10122400EE20E8E7000C0240704700002E2E2F73DA
:10123400797374656D2F7372632F73746D333266B3
:10124400342D68616C2F73746D3332663478785F33
:1012540068616C5F636F727465782E6300000000D0
:101264002E2E2F73797374656D2F7372632F7374BD
:101274006D333266342D68616C2F73746D3332664E
:101284003478785F68616C5F6770696F2E63000003
:101294000000000001020304010203040607080918
:1012A4002E2E2F73797374656D2F7372632F73747D
:1012B4006D333266342D68616C2F73746D3332660E
:1012C4003478785F68616C5F7263632E630000003A
:1012D40000000000000000000102030406070809E2
:1012E4007856341218000020000000000024F40096
:0412F4003254769862
:040000050800018965
:00000001FF
